{
  "_format": "hh-sol-artifact-1",
  "contractName": "Borrowing",
  "sourceName": "contracts/Borrowing.sol",
  "abi": [
    {
      "inputs": [
        {
          "internalType": "address",
          "name": "_borrowToken",
          "type": "address"
        },
        {
          "internalType": "address",
          "name": "_collateralManager",
          "type": "address"
        }
      ],
      "stateMutability": "nonpayable",
      "type": "constructor"
    },
    {
      "inputs": [
        {
          "internalType": "address",
          "name": "owner",
          "type": "address"
        }
      ],
      "name": "OwnableInvalidOwner",
      "type": "error"
    },
    {
      "inputs": [
        {
          "internalType": "address",
          "name": "account",
          "type": "address"
        }
      ],
      "name": "OwnableUnauthorizedAccount",
      "type": "error"
    },
    {
      "inputs": [],
      "name": "ReentrancyGuardReentrantCall",
      "type": "error"
    },
    {
      "inputs": [
        {
          "internalType": "address",
          "name": "token",
          "type": "address"
        }
      ],
      "name": "SafeERC20FailedOperation",
      "type": "error"
    },
    {
      "anonymous": false,
      "inputs": [
        {
          "indexed": true,
          "internalType": "address",
          "name": "user",
          "type": "address"
        },
        {
          "indexed": false,
          "internalType": "uint256",
          "name": "amount",
          "type": "uint256"
        }
      ],
      "name": "Borrowed",
      "type": "event"
    },
    {
      "anonymous": false,
      "inputs": [
        {
          "indexed": true,
          "internalType": "address",
          "name": "user",
          "type": "address"
        },
        {
          "indexed": false,
          "internalType": "uint256",
          "name": "amount",
          "type": "uint256"
        }
      ],
      "name": "Deposited",
      "type": "event"
    },
    {
      "anonymous": false,
      "inputs": [
        {
          "indexed": true,
          "internalType": "address",
          "name": "previousOwner",
          "type": "address"
        },
        {
          "indexed": true,
          "internalType": "address",
          "name": "newOwner",
          "type": "address"
        }
      ],
      "name": "OwnershipTransferred",
      "type": "event"
    },
    {
      "anonymous": false,
      "inputs": [
        {
          "indexed": true,
          "internalType": "address",
          "name": "user",
          "type": "address"
        },
        {
          "indexed": false,
          "internalType": "uint256",
          "name": "amount",
          "type": "uint256"
        }
      ],
      "name": "Repaid",
      "type": "event"
    },
    {
      "anonymous": false,
      "inputs": [
        {
          "indexed": true,
          "internalType": "address",
          "name": "user",
          "type": "address"
        },
        {
          "indexed": false,
          "internalType": "uint256",
          "name": "amount",
          "type": "uint256"
        }
      ],
      "name": "Withdrawn",
      "type": "event"
    },
    {
      "inputs": [
        {
          "internalType": "address",
          "name": "user",
          "type": "address"
        },
        {
          "internalType": "uint256",
          "name": "amount",
          "type": "uint256"
        }
      ],
      "name": "_repayOnBehalf",
      "outputs": [],
      "stateMutability": "nonpayable",
      "type": "function"
    },
    {
      "inputs": [
        {
          "internalType": "uint256",
          "name": "amount",
          "type": "uint256"
        }
      ],
      "name": "borrow",
      "outputs": [],
      "stateMutability": "nonpayable",
      "type": "function"
    },
    {
      "inputs": [],
      "name": "borrowToken",
      "outputs": [
        {
          "internalType": "contract IERC20",
          "name": "",
          "type": "address"
        }
      ],
      "stateMutability": "view",
      "type": "function"
    },
    {
      "inputs": [],
      "name": "collateralManager",
      "outputs": [
        {
          "internalType": "contract CollateralManager",
          "name": "",
          "type": "address"
        }
      ],
      "stateMutability": "view",
      "type": "function"
    },
    {
      "inputs": [
        {
          "internalType": "uint256",
          "name": "amount",
          "type": "uint256"
        }
      ],
      "name": "deposit",
      "outputs": [],
      "stateMutability": "nonpayable",
      "type": "function"
    },
    {
      "inputs": [
        {
          "internalType": "address",
          "name": "user",
          "type": "address"
        }
      ],
      "name": "getHealthFactor",
      "outputs": [
        {
          "internalType": "uint256",
          "name": "",
          "type": "uint256"
        }
      ],
      "stateMutability": "view",
      "type": "function"
    },
    {
      "inputs": [],
      "name": "owner",
      "outputs": [
        {
          "internalType": "address",
          "name": "",
          "type": "address"
        }
      ],
      "stateMutability": "view",
      "type": "function"
    },
    {
      "inputs": [],
      "name": "renounceOwnership",
      "outputs": [],
      "stateMutability": "nonpayable",
      "type": "function"
    },
    {
      "inputs": [
        {
          "internalType": "uint256",
          "name": "amount",
          "type": "uint256"
        }
      ],
      "name": "repay",
      "outputs": [],
      "stateMutability": "nonpayable",
      "type": "function"
    },
    {
      "inputs": [],
      "name": "totalPoolLiquidity",
      "outputs": [
        {
          "internalType": "uint256",
          "name": "",
          "type": "uint256"
        }
      ],
      "stateMutability": "view",
      "type": "function"
    },
    {
      "inputs": [
        {
          "internalType": "address",
          "name": "newOwner",
          "type": "address"
        }
      ],
      "name": "transferOwnership",
      "outputs": [],
      "stateMutability": "nonpayable",
      "type": "function"
    },
    {
      "inputs": [
        {
          "internalType": "address",
          "name": "",
          "type": "address"
        }
      ],
      "name": "userBorrows",
      "outputs": [
        {
          "internalType": "uint256",
          "name": "",
          "type": "uint256"
        }
      ],
      "stateMutability": "view",
      "type": "function"
    },
    {
      "inputs": [
        {
          "internalType": "address",
          "name": "",
          "type": "address"
        }
      ],
      "name": "userPoolDeposits",
      "outputs": [
        {
          "internalType": "uint256",
          "name": "",
          "type": "uint256"
        }
      ],
      "stateMutability": "view",
      "type": "function"
    },
    {
      "inputs": [
        {
          "internalType": "uint256",
          "name": "amount",
          "type": "uint256"
        }
      ],
      "name": "withdraw",
      "outputs": [],
      "stateMutability": "nonpayable",
      "type": "function"
    }
  ],
  "bytecode": "0x60a060405234801561001057600080fd5b50604051610f4c380380610f4c83398101604081905261002f9161011c565b60017f9b779b17422d0df92223018b32b4d1fa46e071723d6817e2486d003becc55f005581338061007a57604051631e4fbdf760e01b81526000600482015260240160405180910390fd5b610083816100b0565b506001600160a01b03908116608052600380546001600160a01b031916929091169190911790555061014f565b600080546001600160a01b038381166001600160a01b0319831681178455604051919092169283917f8be0079c531659141344cd1fd0a4f28419497f9722a3daafe3b4186f6b6457e09190a35050565b80516001600160a01b038116811461011757600080fd5b919050565b6000806040838503121561012f57600080fd5b61013883610100565b915061014660208401610100565b90509250929050565b608051610dc66101866000396000818161014c01528181610361015281816105f0015281816109b40152610b200152610dc66000f3fe608060405234801561001057600080fd5b50600436106100ea5760003560e01c8063896726c71161008c578063c5ebeaec11610066578063c5ebeaec146101fb578063e8f003311461020e578063f2fde38b14610217578063fe6bcd7c1461022a57600080fd5b8063896726c7146101c45780638da5cb5b146101d7578063b6b55f25146101e857600080fd5b8063456dc17a116100c8578063456dc17a146101475780636d1565e01461016e578063715018a61461019c57806377593cc4146101a457600080fd5b806323be345c146100ef5780632e1a7d4d1461011f578063371fd8e614610134575b600080fd5b600354610102906001600160a01b031681565b6040516001600160a01b0390911681526020015b60405180910390f35b61013261012d366004610c53565b61023d565b005b610132610142366004610c53565b6103d8565b6101027f000000000000000000000000000000000000000000000000000000000000000081565b61018e61017c366004610c88565b60026020526000908152604090205481565b604051908152602001610116565b6101326104c0565b61018e6101b2366004610c88565b60046020526000908152604090205481565b6101326101d2366004610caa565b6104d4565b6000546001600160a01b0316610102565b6101326101f6366004610c53565b6105bb565b610132610209366004610c53565b610687565b61018e60015481565b610132610225366004610c88565b610883565b61018e610238366004610c88565b6108be565b610245610951565b6000811161026e5760405162461bcd60e51b815260040161026590610cd4565b60405180910390fd5b336000908152600260205260409020548111156102c45760405162461bcd60e51b8152602060048201526014602482015273496e73756666696369656e742062616c616e636560601b6044820152606401610265565b8060015410156103165760405162461bcd60e51b815260206004820152601b60248201527f496e73756666696369656e7420706f6f6c206c697175696469747900000000006044820152606401610265565b3360009081526002602052604081208054839290610335908490610d16565b92505081905550806001600082825461034e9190610d16565b9091555061038890506001600160a01b037f000000000000000000000000000000000000000000000000000000000000000016338361096d565b60405181815233907f7084f5476618d8e60b11ef0d7d3f06914655adb8793e28ff7f018d4c76d505d5906020015b60405180910390a26103d56001600080516020610d7183398151915255565b50565b6103e0610951565b600081116104005760405162461bcd60e51b815260040161026590610cd4565b3360009081526004602052604090205481111561045f5760405162461bcd60e51b815260206004820152601b60248201527f5265706179696e67206d6f7265207468616e20626f72726f77656400000000006044820152606401610265565b336000908152600460205260408120805483929061047e908490610d16565b9091555061048e905033826109a7565b60405181815233907f0516911bcc3a0a7412a44601057c0a0a1ec628bde049a84284bc428866534488906020016103b6565b6104c86109f7565b6104d26000610a24565b565b6001600160a01b03821660009081526004602052604090205481111561053c5760405162461bcd60e51b815260206004820152601760248201527f5265706179696e67206d6f7265207468616e20646562740000000000000000006044820152606401610265565b6001600160a01b03821660009081526004602052604081208054839290610564908490610d16565b90915550610574905033826109a7565b816001600160a01b03167f0516911bcc3a0a7412a44601057c0a0a1ec628bde049a84284bc428866534488826040516105af91815260200190565b60405180910390a25050565b6105c3610951565b600081116105e35760405162461bcd60e51b815260040161026590610cd4565b6106186001600160a01b037f000000000000000000000000000000000000000000000000000000000000000016333084610a74565b3360009081526002602052604081208054839290610637908490610d2f565b9250508190555080600160008282546106509190610d2f565b909155505060405181815233907f2da466a7b24304f47e87fa2e1e5a81b9831ce54fec19055ce277ca2f39ba42c4906020016103b6565b61068f610951565b600081116106af5760405162461bcd60e51b815260040161026590610cd4565b33600090815260046020526040812080548392906106ce908490610d2f565b909155505060035433600081815260046020819052604080832054905163050eb0e360e41b81529182019390935260248101929092529182916001600160a01b03909116906350eb0e3090604401606060405180830381865afa158015610739573d6000803e3d6000fd5b505050506040513d601f19601f8201168201806040525081019061075d9190610d42565b33600090815260046020526040902054919450925083101590506107c35760405162461bcd60e51b815260206004820152601760248201527f4578636565647320626f72726f77696e6720706f7765720000000000000000006044820152606401610265565b670de0b6b3a764000081101561082b5760405162461bcd60e51b815260206004820152602760248201527f496e73756666696369656e74206865616c746820666163746f7220616674657260448201526620626f72726f7760c81b6064820152608401610265565b6108353384610ab0565b60405183815233907fac59582e5396aca512fa873a2047e7f4c80f8f55d4a06cb34a78a0187f62719f9060200160405180910390a250506103d56001600080516020610d7183398151915255565b61088b6109f7565b6001600160a01b0381166108b557604051631e4fbdf760e01b815260006004820152602401610265565b6103d581610a24565b6003546001600160a01b03828116600081815260046020819052604080832054905163050eb0e360e41b815291820193909352602481019290925292839216906350eb0e3090604401606060405180830381865afa158015610924573d6000803e3d6000fd5b505050506040513d601f19601f820116820180604052508101906109489190610d42565b95945050505050565b610959610b4b565b6002600080516020610d7183398151915255565b61097a8383836001610b7b565b6109a257604051635274afe760e01b81526001600160a01b0384166004820152602401610265565b505050565b6109dc6001600160a01b037f000000000000000000000000000000000000000000000000000000000000000016833084610a74565b80600160008282546109ee9190610d2f565b90915550505050565b6000546001600160a01b031633146104d25760405163118cdaa760e01b8152336004820152602401610265565b600080546001600160a01b038381166001600160a01b0319831681178455604051919092169283917f8be0079c531659141344cd1fd0a4f28419497f9722a3daafe3b4186f6b6457e09190a35050565b610a82848484846001610be1565b610aaa57604051635274afe760e01b81526001600160a01b0385166004820152602401610265565b50505050565b806001541015610afb5760405162461bcd60e51b8152602060048201526016602482015275496e73756666696369656e74206c697175696469747960501b6044820152606401610265565b8060016000828254610b0d9190610d16565b90915550610b4790506001600160a01b037f000000000000000000000000000000000000000000000000000000000000000016838361096d565b5050565b600080516020610d71833981519152546002036104d257604051633ee5aeb560e01b815260040160405180910390fd5b60405163a9059cbb60e01b60008181526001600160a01b038616600452602485905291602083604481808b5af192506001600051148316610bd5578383151615610bc8573d6000823e3d81fd5b6000873b113d1516831692505b60405250949350505050565b6040516323b872dd60e01b60008181526001600160a01b038781166004528616602452604485905291602083606481808c5af192506001600051148316610c41578383151615610c34573d6000823e3d81fd5b6000883b113d1516831692505b60405250600060605295945050505050565b600060208284031215610c6557600080fd5b5035919050565b80356001600160a01b0381168114610c8357600080fd5b919050565b600060208284031215610c9a57600080fd5b610ca382610c6c565b9392505050565b60008060408385031215610cbd57600080fd5b610cc683610c6c565b946020939093013593505050565b6020808252601290820152710416d6f756e74206d757374206265203e20360741b604082015260600190565b634e487b7160e01b600052601160045260246000fd5b81810381811115610d2957610d29610d00565b92915050565b80820180821115610d2957610d29610d00565b600080600060608486031215610d5757600080fd5b835192506020840151915060408401519050925092509256fe9b779b17422d0df92223018b32b4d1fa46e071723d6817e2486d003becc55f00a2646970667358221220d47569c76cd451533f8f183c2d7dab7df3d7436efeb8ebc213888d813198ef3a64736f6c63430008140033",
  "linkReferences": {},
  "deployedLinkReferences": {}
}