{
  "_format": "hh-sol-artifact-1",
  "contractName": "CollateralManager",
  "sourceName": "contracts/CollateralManager.sol",
  "abi": [
    {
      "inputs": [
        {
          "internalType": "address",
          "name": "_priceFeed",
          "type": "address"
        }
      ],
      "stateMutability": "nonpayable",
      "type": "constructor"
    },
    {
      "inputs": [
        {
          "internalType": "address",
          "name": "owner",
          "type": "address"
        }
      ],
      "name": "OwnableInvalidOwner",
      "type": "error"
    },
    {
      "inputs": [
        {
          "internalType": "address",
          "name": "account",
          "type": "address"
        }
      ],
      "name": "OwnableUnauthorizedAccount",
      "type": "error"
    },
    {
      "inputs": [],
      "name": "ReentrancyGuardReentrantCall",
      "type": "error"
    },
    {
      "anonymous": false,
      "inputs": [
        {
          "indexed": true,
          "internalType": "address",
          "name": "user",
          "type": "address"
        },
        {
          "indexed": false,
          "internalType": "uint256",
          "name": "amount",
          "type": "uint256"
        }
      ],
      "name": "CollateralDeposited",
      "type": "event"
    },
    {
      "anonymous": false,
      "inputs": [
        {
          "indexed": true,
          "internalType": "address",
          "name": "user",
          "type": "address"
        },
        {
          "indexed": false,
          "internalType": "uint256",
          "name": "amount",
          "type": "uint256"
        }
      ],
      "name": "CollateralWithdrawn",
      "type": "event"
    },
    {
      "anonymous": false,
      "inputs": [
        {
          "indexed": true,
          "internalType": "address",
          "name": "previousOwner",
          "type": "address"
        },
        {
          "indexed": true,
          "internalType": "address",
          "name": "newOwner",
          "type": "address"
        }
      ],
      "name": "OwnershipTransferred",
      "type": "event"
    },
    {
      "inputs": [],
      "name": "LIQUIDATION_THRESHOLD",
      "outputs": [
        {
          "internalType": "uint256",
          "name": "",
          "type": "uint256"
        }
      ],
      "stateMutability": "view",
      "type": "function"
    },
    {
      "inputs": [],
      "name": "LTV",
      "outputs": [
        {
          "internalType": "uint256",
          "name": "",
          "type": "uint256"
        }
      ],
      "stateMutability": "view",
      "type": "function"
    },
    {
      "inputs": [],
      "name": "PERCENTAGE_PRECISION",
      "outputs": [
        {
          "internalType": "uint256",
          "name": "",
          "type": "uint256"
        }
      ],
      "stateMutability": "view",
      "type": "function"
    },
    {
      "inputs": [
        {
          "internalType": "address",
          "name": "user",
          "type": "address"
        },
        {
          "internalType": "address",
          "name": "liquidator",
          "type": "address"
        },
        {
          "internalType": "uint256",
          "name": "amount",
          "type": "uint256"
        }
      ],
      "name": "_seizeCollateral",
      "outputs": [],
      "stateMutability": "nonpayable",
      "type": "function"
    },
    {
      "inputs": [],
      "name": "borrowingContract",
      "outputs": [
        {
          "internalType": "address",
          "name": "",
          "type": "address"
        }
      ],
      "stateMutability": "view",
      "type": "function"
    },
    {
      "inputs": [],
      "name": "depositCollateral",
      "outputs": [],
      "stateMutability": "payable",
      "type": "function"
    },
    {
      "inputs": [
        {
          "internalType": "address",
          "name": "user",
          "type": "address"
        },
        {
          "internalType": "uint256",
          "name": "totalBorrowedUSD",
          "type": "uint256"
        }
      ],
      "name": "getAccountData",
      "outputs": [
        {
          "internalType": "uint256",
          "name": "totalCollateralUSD",
          "type": "uint256"
        },
        {
          "internalType": "uint256",
          "name": "borrowPowerUSD",
          "type": "uint256"
        },
        {
          "internalType": "uint256",
          "name": "healthFactor",
          "type": "uint256"
        }
      ],
      "stateMutability": "view",
      "type": "function"
    },
    {
      "inputs": [
        {
          "internalType": "address",
          "name": "user",
          "type": "address"
        }
      ],
      "name": "getCollateralValueUSD",
      "outputs": [
        {
          "internalType": "uint256",
          "name": "",
          "type": "uint256"
        }
      ],
      "stateMutability": "view",
      "type": "function"
    },
    {
      "inputs": [],
      "name": "getLatestPrice",
      "outputs": [
        {
          "internalType": "uint256",
          "name": "",
          "type": "uint256"
        }
      ],
      "stateMutability": "view",
      "type": "function"
    },
    {
      "inputs": [],
      "name": "owner",
      "outputs": [
        {
          "internalType": "address",
          "name": "",
          "type": "address"
        }
      ],
      "stateMutability": "view",
      "type": "function"
    },
    {
      "inputs": [],
      "name": "renounceOwnership",
      "outputs": [],
      "stateMutability": "nonpayable",
      "type": "function"
    },
    {
      "inputs": [
        {
          "internalType": "address",
          "name": "_borrowingContract",
          "type": "address"
        }
      ],
      "name": "setBorrowingContract",
      "outputs": [],
      "stateMutability": "nonpayable",
      "type": "function"
    },
    {
      "inputs": [
        {
          "internalType": "address",
          "name": "newOwner",
          "type": "address"
        }
      ],
      "name": "transferOwnership",
      "outputs": [],
      "stateMutability": "nonpayable",
      "type": "function"
    },
    {
      "inputs": [
        {
          "internalType": "address",
          "name": "",
          "type": "address"
        }
      ],
      "name": "userCollateral",
      "outputs": [
        {
          "internalType": "uint256",
          "name": "",
          "type": "uint256"
        }
      ],
      "stateMutability": "view",
      "type": "function"
    },
    {
      "inputs": [
        {
          "internalType": "uint256",
          "name": "amount",
          "type": "uint256"
        }
      ],
      "name": "withdrawCollateral",
      "outputs": [],
      "stateMutability": "nonpayable",
      "type": "function"
    }
  ],
  "bytecode": "0x60a060405234801561001057600080fd5b50604051610e18380380610e1883398101604081905261002f916100e4565b60017f9b779b17422d0df92223018b32b4d1fa46e071723d6817e2486d003becc55f0055338061007957604051631e4fbdf760e01b81526000600482015260240160405180910390fd5b61008281610094565b506001600160a01b0316608052610114565b600080546001600160a01b038381166001600160a01b0319831681178455604051919092169283917f8be0079c531659141344cd1fd0a4f28419497f9722a3daafe3b4186f6b6457e09190a35050565b6000602082840312156100f657600080fd5b81516001600160a01b038116811461010d57600080fd5b9392505050565b608051610ce961012f600039600061079c0152610ce96000f3fe6080604052600436106100e85760003560e01c806384a965ed1161008a578063cb38a52911610059578063cb38a52914610251578063e256888f14610271578063f2fde38b14610287578063f69f1e4a146102a757600080fd5b806384a965ed146101d05780638da5cb5b146102085780638e15f4731461022657806390a8ae9b1461023b57600080fd5b806362965d8e116100c657806362965d8e1461017d5780636f75814014610193578063715018a61461019b57806378fdaf3f146101b057600080fd5b80633a5d0a48146100ed57806350eb0e30146101205780636112fe2e1461015b575b600080fd5b3480156100f957600080fd5b5061010d610108366004610ac6565b6102d4565b6040519081526020015b60405180910390f35b34801561012c57600080fd5b5061014061013b366004610ae8565b61031d565b60408051938452602084019290925290820152606001610117565b34801561016757600080fd5b5061017b610176366004610b12565b61039e565b005b34801561018957600080fd5b5061010d611f4081565b61017b61069c565b3480156101a757600080fd5b5061017b61075b565b3480156101bc57600080fd5b5061017b6101cb366004610ac6565b61076d565b3480156101dc57600080fd5b506002546101f0906001600160a01b031681565b6040516001600160a01b039091168152602001610117565b34801561021457600080fd5b506000546001600160a01b03166101f0565b34801561023257600080fd5b5061010d610797565b34801561024757600080fd5b5061010d61213481565b34801561025d57600080fd5b5061017b61026c366004610b2b565b610827565b34801561027d57600080fd5b5061010d61271081565b34801561029357600080fd5b5061017b6102a2366004610ac6565b6109a6565b3480156102b357600080fd5b5061010d6102c2366004610ac6565b60016020526000908152604090205481565b6001600160a01b038116600090815260016020526040812054816102f6610797565b9050670de0b6b3a764000061030b8284610b7d565b6103159190610b9a565b949350505050565b60008060008061032c866102d4565b905061033d816402540be400610b7d565b935061271061034e611f4086610b7d565b6103589190610b9a565b92508460000361036c576000199150610396565b8461037961213486610b7d565b61038990655af3107a4000610b7d565b6103939190610b9a565b91505b509250925092565b6103a66109e1565b600081116103f05760405162461bcd60e51b81526020600482015260126024820152710416d6f756e74206d757374206265203e20360741b60448201526064015b60405180910390fd5b3360009081526001602052604090205481111561044f5760405162461bcd60e51b815260206004820152601760248201527f496e73756666696369656e7420636f6c6c61746572616c00000000000000000060448201526064016103e7565b336000908152600160205260408120805483929061046e908490610bbc565b90915550506002546001600160a01b0316156105c257600254604051631dd64f3160e21b81523360048201526000916001600160a01b0316906377593cc490602401602060405180830381865afa1580156104cd573d6000803e3d6000fd5b505050506040513d601f19601f820116820180604052508101906104f19190610bcf565b905080156105c05760405163050eb0e360e41b81523360048201526024810182905260009030906350eb0e3090604401606060405180830381865afa15801561053e573d6000803e3d6000fd5b505050506040513d601f19601f820116820180604052508101906105629190610be8565b92505050670de0b6b3a76400008110156105be5760405162461bcd60e51b815260206004820181905260248201527f5769746864726177616c206d616b657320706f736974696f6e20756e7361666560448201526064016103e7565b505b505b604051600090339083908381818185875af1925050503d8060008114610604576040519150601f19603f3d011682016040523d82523d6000602084013e610609565b606091505b505090508061064c5760405162461bcd60e51b815260206004820152600f60248201526e151c985b9cd9995c8819985a5b1959608a1b60448201526064016103e7565b60405182815233907fc30fcfbcaac9e0deffa719714eaa82396ff506a0d0d0eebe170830177288715d9060200160405180910390a2506106996001600080516020610c9483398151915255565b50565b6106a46109e1565b600034116106e95760405162461bcd60e51b81526020600482015260126024820152710416d6f756e74206d757374206265203e20360741b60448201526064016103e7565b3360009081526001602052604081208054349290610708908490610c16565b909155505060405134815233907fd7243f6f8212d5188fd054141cf6ea89cfc0d91facb8c3afe2f88a13584801429060200160405180910390a26107596001600080516020610c9483398151915255565b565b6107636109fd565b6107596000610a2a565b6107756109fd565b600280546001600160a01b0319166001600160a01b0392909216919091179055565b6000807f00000000000000000000000000000000000000000000000000000000000000006001600160a01b031663feaf968c6040518163ffffffff1660e01b815260040160a060405180830381865afa1580156107f8573d6000803e3d6000fd5b505050506040513d601f19601f8201168201806040525081019061081c9190610c43565b509195945050505050565b6001600160a01b03831660009081526001602052604090205481111561088f5760405162461bcd60e51b815260206004820181905260248201527f496e73756666696369656e7420636f6c6c61746572616c20746f207365697a6560448201526064016103e7565b6001600160a01b038316600090815260016020526040812080548392906108b7908490610bbc565b90915550506040516000906001600160a01b0384169083908381818185875af1925050503d8060008114610907576040519150601f19603f3d011682016040523d82523d6000602084013e61090c565b606091505b505090508061095d5760405162461bcd60e51b815260206004820152601e60248201527f5472616e73666572206661696c656420647572696e67207365697a757265000060448201526064016103e7565b836001600160a01b03167fc30fcfbcaac9e0deffa719714eaa82396ff506a0d0d0eebe170830177288715d8360405161099891815260200190565b60405180910390a250505050565b6109ae6109fd565b6001600160a01b0381166109d857604051631e4fbdf760e01b8152600060048201526024016103e7565b61069981610a2a565b6109e9610a7a565b6002600080516020610c9483398151915255565b6000546001600160a01b031633146107595760405163118cdaa760e01b81523360048201526024016103e7565b600080546001600160a01b038381166001600160a01b0319831681178455604051919092169283917f8be0079c531659141344cd1fd0a4f28419497f9722a3daafe3b4186f6b6457e09190a35050565b600080516020610c948339815191525460020361075957604051633ee5aeb560e01b815260040160405180910390fd5b80356001600160a01b0381168114610ac157600080fd5b919050565b600060208284031215610ad857600080fd5b610ae182610aaa565b9392505050565b60008060408385031215610afb57600080fd5b610b0483610aaa565b946020939093013593505050565b600060208284031215610b2457600080fd5b5035919050565b600080600060608486031215610b4057600080fd5b610b4984610aaa565b9250610b5760208501610aaa565b9150604084013590509250925092565b634e487b7160e01b600052601160045260246000fd5b8082028115828204841417610b9457610b94610b67565b92915050565b600082610bb757634e487b7160e01b600052601260045260246000fd5b500490565b81810381811115610b9457610b94610b67565b600060208284031215610be157600080fd5b5051919050565b600080600060608486031215610bfd57600080fd5b8351925060208401519150604084015190509250925092565b80820180821115610b9457610b94610b67565b805169ffffffffffffffffffff81168114610ac157600080fd5b600080600080600060a08688031215610c5b57600080fd5b610c6486610c29565b9450602086015193506040860151925060608601519150610c8760808701610c29565b9050929550929590935056fe9b779b17422d0df92223018b32b4d1fa46e071723d6817e2486d003becc55f00a2646970667358221220151fed8279b839c2c69ba39fb230fb9cd4bcd6fcc6a23bbff198df08c763178064736f6c63430008140033",
  "linkReferences": {},
  "deployedLinkReferences": {}
}