{
  "_format": "hh-sol-artifact-1",
  "contractName": "Liquidation",
  "sourceName": "contracts/Liquidation.sol",
  "abi": [
    {
      "inputs": [
        {
          "internalType": "address",
          "name": "_borrowing",
          "type": "address"
        },
        {
          "internalType": "address",
          "name": "_collateralManager",
          "type": "address"
        }
      ],
      "stateMutability": "nonpayable",
      "type": "constructor"
    },
    {
      "inputs": [],
      "name": "ReentrancyGuardReentrantCall",
      "type": "error"
    },
    {
      "anonymous": false,
      "inputs": [
        {
          "indexed": true,
          "internalType": "address",
          "name": "user",
          "type": "address"
        },
        {
          "indexed": true,
          "internalType": "address",
          "name": "liquidator",
          "type": "address"
        },
        {
          "indexed": false,
          "internalType": "uint256",
          "name": "repaidAmount",
          "type": "uint256"
        },
        {
          "indexed": false,
          "internalType": "uint256",
          "name": "collateralSeized",
          "type": "uint256"
        }
      ],
      "name": "Liquidated",
      "type": "event"
    },
    {
      "inputs": [],
      "name": "LIQUIDATION_BONUS",
      "outputs": [
        {
          "internalType": "uint256",
          "name": "",
          "type": "uint256"
        }
      ],
      "stateMutability": "view",
      "type": "function"
    },
    {
      "inputs": [],
      "name": "PERCENTAGE_PRECISION",
      "outputs": [
        {
          "internalType": "uint256",
          "name": "",
          "type": "uint256"
        }
      ],
      "stateMutability": "view",
      "type": "function"
    },
    {
      "inputs": [],
      "name": "borrowing",
      "outputs": [
        {
          "internalType": "contract Borrowing",
          "name": "",
          "type": "address"
        }
      ],
      "stateMutability": "view",
      "type": "function"
    },
    {
      "inputs": [],
      "name": "collateralManager",
      "outputs": [
        {
          "internalType": "contract CollateralManager",
          "name": "",
          "type": "address"
        }
      ],
      "stateMutability": "view",
      "type": "function"
    },
    {
      "inputs": [
        {
          "internalType": "address",
          "name": "user",
          "type": "address"
        },
        {
          "internalType": "uint256",
          "name": "debtToRepay",
          "type": "uint256"
        }
      ],
      "name": "liquidate",
      "outputs": [],
      "stateMutability": "nonpayable",
      "type": "function"
    }
  ],
  "bytecode": "0x608060405234801561001057600080fd5b5060405161076238038061076283398101604081905261002f916100a0565b60017f9b779b17422d0df92223018b32b4d1fa46e071723d6817e2486d003becc55f0055600080546001600160a01b039384166001600160a01b031991821617909155600180549290931691161790556100d3565b80516001600160a01b038116811461009b57600080fd5b919050565b600080604083850312156100b357600080fd5b6100bc83610084565b91506100ca60208401610084565b90509250929050565b610680806100e26000396000f3fe608060405234801561001057600080fd5b50600436106100575760003560e01c806323be345c1461005c5780633574d4c41461008c57806360b415ed146100a3578063bcbaf487146100b6578063e256888f146100cb575b600080fd5b60015461006f906001600160a01b031681565b6040516001600160a01b0390911681526020015b60405180910390f35b6100956101f481565b604051908152602001610083565b60005461006f906001600160a01b031681565b6100c96100c4366004610591565b6100d4565b005b61009561271081565b6100dc61051f565b60008054604051633f9af35f60e21b81526001600160a01b0385811660048301529091169063fe6bcd7c90602401602060405180830381865afa158015610127573d6000803e3d6000fd5b505050506040513d601f19601f8201168201806040525081019061014b91906105c9565b9050670de0b6b3a7640000811061019c5760405162461bcd60e51b815260206004820152601060248201526f506f736974696f6e206973207361666560801b60448201526064015b60405180910390fd5b60008054604051631dd64f3160e21b81526001600160a01b038681166004830152909116906377593cc490602401602060405180830381865afa1580156101e7573d6000803e3d6000fd5b505050506040513d601f19601f8201168201806040525081019061020b91906105c9565b90508083111561025d5760405162461bcd60e51b815260206004820152601760248201527f5265706179696e67206d6f7265207468616e20646562740000000000000000006044820152606401610193565b60015460408051638e15f47360e01b815290516000926001600160a01b031691638e15f4739160048083019260209291908290030181865afa1580156102a7573d6000803e3d6000fd5b505050506040513d601f19601f820116820180604052508101906102cb91906105c9565b90506000816102de866305f5e1006105f8565b6102e89190610615565b905060006127106102fb6101f4846105f8565b6103059190610615565b905060006103138284610637565b600154604051637b4f8f2560e11b81526001600160a01b038b8116600483015292935083929091169063f69f1e4a90602401602060405180830381865afa158015610362573d6000803e3d6000fd5b505050506040513d601f19601f8201168201806040525081019061038691906105c9565b10156103d45760405162461bcd60e51b815260206004820181905260248201527f496e73756666696369656e7420636f6c6c61746572616c20746f207365697a656044820152606401610193565b60005460405163896726c760e01b81526001600160a01b038a81166004830152602482018a90529091169063896726c790604401600060405180830381600087803b15801561042257600080fd5b505af1158015610436573d6000803e3d6000fd5b505060015460405163cb38a52960e01b81526001600160a01b038c8116600483015233602483015260448201869052909116925063cb38a5299150606401600060405180830381600087803b15801561048e57600080fd5b505af11580156104a2573d6000803e3d6000fd5b5050604080518a8152602081018590523393506001600160a01b038c1692507f1f0c6615429d1cdae0dfa233abf91d3b31cdbdd82c8081389832a61e1072f1ea910160405180910390a350505050505061051b60017f9b779b17422d0df92223018b32b4d1fa46e071723d6817e2486d003becc55f0055565b5050565b61052761054d565b60027f9b779b17422d0df92223018b32b4d1fa46e071723d6817e2486d003becc55f0055565b7f9b779b17422d0df92223018b32b4d1fa46e071723d6817e2486d003becc55f005460020361058f57604051633ee5aeb560e01b815260040160405180910390fd5b565b600080604083850312156105a457600080fd5b82356001600160a01b03811681146105bb57600080fd5b946020939093013593505050565b6000602082840312156105db57600080fd5b5051919050565b634e487b7160e01b600052601160045260246000fd5b808202811582820484141761060f5761060f6105e2565b92915050565b60008261063257634e487b7160e01b600052601260045260246000fd5b500490565b8082018082111561060f5761060f6105e256fea26469706673582212204a3eb061cc9c66a4ff46fbc4d7f28437e4bfebefa3c38562b926ff41cf0b065564736f6c63430008140033",
  "linkReferences": {},
  "deployedLinkReferences": {}
}