{
  "_format": "hh-sol-artifact-1",
  "contractName": "MockPriceOracle",
  "sourceName": "contracts/MockPriceOracle.sol",
  "abi": [
    {
      "inputs": [
        {
          "internalType": "int256",
          "name": "_initialPrice",
          "type": "int256"
        }
      ],
      "stateMutability": "nonpayable",
      "type": "constructor"
    },
    {
      "inputs": [],
      "name": "latestRoundData",
      "outputs": [
        {
          "internalType": "uint80",
          "name": "roundId",
          "type": "uint80"
        },
        {
          "internalType": "int256",
          "name": "answer",
          "type": "int256"
        },
        {
          "internalType": "uint256",
          "name": "startedAt",
          "type": "uint256"
        },
        {
          "internalType": "uint256",
          "name": "updatedAt",
          "type": "uint256"
        },
        {
          "internalType": "uint80",
          "name": "answeredInRound",
          "type": "uint80"
        }
      ],
      "stateMutability": "view",
      "type": "function"
    },
    {
      "inputs": [
        {
          "internalType": "int256",
          "name": "_newPrice",
          "type": "int256"
        }
      ],
      "name": "updatePrice",
      "outputs": [],
      "stateMutability": "nonpayable",
      "type": "function"
    }
  ],
  "bytecode": "0x608060405234801561001057600080fd5b5060405161012838038061012883398101604081905261002f91610037565b600055610050565b60006020828403121561004957600080fd5b5051919050565b60ca8061005e6000396000f3fe6080604052348015600f57600080fd5b506004361060325760003560e01c8063d4c19bda146037578063feaf968c146049575b600080fd5b60476042366004607c565b600055565b005b60008054604080518381526020810192909252818101839052426060830152608082019290925290519081900360a00190f35b600060208284031215608d57600080fd5b503591905056fea2646970667358221220bc6c460b414c88260ff1b03e17d47bb232b3cb2435bd3b156f883aa6043c120664736f6c63430008140033",
  "linkReferences": {},
  "deployedLinkReferences": {}
}